{
  "contractName": "SampleContract",
  "abi": [
    {
      "inputs": [
        {
          "internalType": "int32",
          "name": "_myUint",
          "type": "int32"
        }
      ],
      "name": "setter",
      "outputs": [],
      "stateMutability": "nonpayable",
      "type": "function"
    }
  ],
  "bytecode": "0x608060405234801561001057600080fd5b50610102806100206000396000f3fe6080604052348015600f57600080fd5b506004361060285760003560e01c8063f1aea7f814602d575b600080fd5b60436004803603810190603f919060a4565b6045565b005b806000806101000a81548163ffffffff021916908360030b63ffffffff16021790555050565b600080fd5b60008160030b9050919050565b6084816070565b8114608e57600080fd5b50565b600081359050609e81607d565b92915050565b60006020828403121560b75760b6606b565b5b600060c3848285016091565b9150509291505056fea26469706673582212208f72e14d87a325f701a936689675ea9c0a552fd0dfeca99a79da4e4761bab93f64736f6c634300080d0033",
  "immutableReferences": {},
  "source": "// SPDX-License-Identifier: MIT\r\n\r\npragma solidity >=0.5.0 <0.9.0;\r\n\r\ncontract SampleContract {\r\n    int32 myUint;\r\n\r\n    function setter(int32 _myUint) public {\r\n        myUint = _myUint;\r\n    }\r\n}\r\n",
  "sourcePath": "C:\\Users\\91966\\Desktop\\Mini Project\\Project-Solution-Challange\\contracts\\SampleContract.sol",
  "compiler": {
    "name": "solc",
    "version": "0.8.13+commit.abaa5c0e.Emscripten.clang"
  },
  "schemaVersion": "3.4.16",
  "updatedAt": "2024-01-02T15:31:44.928Z",
  "networkType": "ethereum",
  "devdoc": {
    "kind": "dev",
    "methods": {},
    "version": 1
  },
  "userdoc": {
    "kind": "user",
    "methods": {},
    "version": 1
  }
}