{
  "_format": "hh-sol-artifact-1",
  "contractName": "ScholarDetails",
  "sourceName": "contracts/ScholarDetails.sol",
  "abi": [
    {
      "inputs": [
        {
          "internalType": "address",
          "name": "_StuContractAdd",
          "type": "address"
        }
      ],
      "stateMutability": "payable",
      "type": "constructor"
    },
    {
      "anonymous": false,
      "inputs": [
        {
          "indexed": false,
          "internalType": "uint256",
          "name": "amount",
          "type": "uint256"
        }
      ],
      "name": "ReceivedEth",
      "type": "event"
    },
    {
      "stateMutability": "payable",
      "type": "fallback"
    },
    {
      "inputs": [
        {
          "internalType": "uint256",
          "name": "_ID",
          "type": "uint256"
        },
        {
          "internalType": "string",
          "name": "_ScholarshipName",
          "type": "string"
        },
        {
          "internalType": "uint256",
          "name": "_Amount",
          "type": "uint256"
        },
        {
          "internalType": "uint256",
          "name": "_Attendance",
          "type": "uint256"
        },
        {
          "internalType": "uint256",
          "name": "_AvgMark",
          "type": "uint256"
        }
      ],
      "name": "addSchlRecords",
      "outputs": [],
      "stateMutability": "payable",
      "type": "function"
    },
    {
      "inputs": [
        {
          "internalType": "uint256",
          "name": "_ID",
          "type": "uint256"
        }
      ],
      "name": "cancelScholarship",
      "outputs": [],
      "stateMutability": "nonpayable",
      "type": "function"
    },
    {
      "inputs": [
        {
          "internalType": "uint256",
          "name": "_ID",
          "type": "uint256"
        }
      ],
      "name": "getSchlDetails",
      "outputs": [
        {
          "internalType": "uint256",
          "name": "",
          "type": "uint256"
        },
        {
          "internalType": "uint256",
          "name": "",
          "type": "uint256"
        },
        {
          "internalType": "address payable",
          "name": "",
          "type": "address"
        },
        {
          "internalType": "uint256",
          "name": "",
          "type": "uint256"
        },
        {
          "internalType": "uint256",
          "name": "",
          "type": "uint256"
        },
        {
          "internalType": "string",
          "name": "",
          "type": "string"
        }
      ],
      "stateMutability": "view",
      "type": "function"
    },
    {
      "inputs": [
        {
          "internalType": "uint256",
          "name": "_ID",
          "type": "uint256"
        }
      ],
      "name": "getSchlDetailsFrontend",
      "outputs": [
        {
          "internalType": "uint256",
          "name": "",
          "type": "uint256"
        },
        {
          "internalType": "string",
          "name": "",
          "type": "string"
        },
        {
          "internalType": "string",
          "name": "",
          "type": "string"
        }
      ],
      "stateMutability": "view",
      "type": "function"
    },
    {
      "inputs": [],
      "name": "getSchlRemaining",
      "outputs": [
        {
          "internalType": "uint256",
          "name": "",
          "type": "uint256"
        }
      ],
      "stateMutability": "view",
      "type": "function"
    },
    {
      "inputs": [
        {
          "internalType": "uint256",
          "name": "_ID",
          "type": "uint256"
        }
      ],
      "name": "getStatus",
      "outputs": [
        {
          "internalType": "string",
          "name": "",
          "type": "string"
        }
      ],
      "stateMutability": "view",
      "type": "function"
    },
    {
      "inputs": [
        {
          "internalType": "address payable",
          "name": "_StaffContractAdd",
          "type": "address"
        }
      ],
      "name": "storeContractAdd",
      "outputs": [],
      "stateMutability": "nonpayable",
      "type": "function"
    },
    {
      "inputs": [
        {
          "internalType": "uint256",
          "name": "_ID",
          "type": "uint256"
        }
      ],
      "name": "updStatActive",
      "outputs": [],
      "stateMutability": "nonpayable",
      "type": "function"
    },
    {
      "inputs": [
        {
          "internalType": "uint256",
          "name": "_ID",
          "type": "uint256"
        }
      ],
      "name": "updStatCancel",
      "outputs": [],
      "stateMutability": "nonpayable",
      "type": "function"
    },
    {
      "inputs": [
        {
          "internalType": "uint256",
          "name": "_ID",
          "type": "uint256"
        }
      ],
      "name": "updStatFailed",
      "outputs": [],
      "stateMutability": "nonpayable",
      "type": "function"
    },
    {
      "inputs": [
        {
          "internalType": "uint256",
          "name": "_ID",
          "type": "uint256"
        }
      ],
      "name": "updStatPaid",
      "outputs": [],
      "stateMutability": "nonpayable",
      "type": "function"
    },
    {
      "stateMutability": "payable",
      "type": "receive"
    }
  ],
  "bytecode": "0x608060405260405162001e2738038062001e278339818101604052810190620000299190620000da565b806000806101000a81548173ffffffffffffffffffffffffffffffffffffffff021916908373ffffffffffffffffffffffffffffffffffffffff160217905550506200010c565b600080fd5b600073ffffffffffffffffffffffffffffffffffffffff82169050919050565b6000620000a28262000075565b9050919050565b620000b48162000095565b8114620000c057600080fd5b50565b600081519050620000d481620000a9565b92915050565b600060208284031215620000f357620000f262000070565b5b60006200010384828501620000c3565b91505092915050565b611d0b806200011c6000396000f3fe6080604052600436106100a05760003560e01c80638eece846116100645780638eece846146101f8578063b11b47821461023a578063b815570b14610263578063bb76928d1461028e578063e6ad3b99146102cd578063f1ff703f146102f6576100de565b80632238663e1461011757806327815ea01461014057806332b63126146101695780635c622a0e14610192578063706cf851146101cf576100de565b366100de577feac3bc00eb8bc276e61d902ebf696db93b7ee1cf44f1b16d6da1111427825e9e346040516100d4919061100f565b60405180910390a1005b7feac3bc00eb8bc276e61d902ebf696db93b7ee1cf44f1b16d6da1111427825e9e3460405161010d919061100f565b60405180910390a1005b34801561012357600080fd5b5061013e6004803603810190610139919061109c565b610312565b005b34801561014c57600080fd5b50610167600480360381019061016291906110f5565b610356565b005b34801561017557600080fd5b50610190600480360381019061018b91906110f5565b6103b8565b005b34801561019e57600080fd5b506101b960048036038101906101b491906110f5565b610584565b6040516101c691906111b2565b60405180910390f35b3480156101db57600080fd5b506101f660048036038101906101f191906110f5565b610632565b005b34801561020457600080fd5b5061021f600480360381019061021a91906110f5565b610694565b604051610231969594939291906111e3565b60405180910390f35b34801561024657600080fd5b50610261600480360381019061025c91906110f5565b610809565b005b34801561026f57600080fd5b5061027861086b565b604051610285919061100f565b60405180910390f35b34801561029a57600080fd5b506102b560048036038101906102b091906110f5565b610873565b6040516102c49392919061124b565b60405180910390f35b3480156102d957600080fd5b506102f460048036038101906102ef91906110f5565b6109ec565b005b610310600480360381019061030b91906113c5565b610a4e565b005b80600160006101000a81548173ffffffffffffffffffffffffffffffffffffffff021916908373ffffffffffffffffffffffffffffffffffffffff16021790555050565b60006004600083815260200190815260200160002090506040518060400160405280600681526020017f6661696c656400000000000000000000000000000000000000000000000000008152508160060190816103b39190611668565b505050565b600060046000838152602001908152602001600020905080600001548214610415576040517f08c379a000000000000000000000000000000000000000000000000000000000815260040161040c906117d2565b60405180910390fd5b3373ffffffffffffffffffffffffffffffffffffffff168160030160009054906101000a900473ffffffffffffffffffffffffffffffffffffffff1673ffffffffffffffffffffffffffffffffffffffff16146104a7576040517f08c379a000000000000000000000000000000000000000000000000000000000815260040161049e90611864565b60405180910390fd5b60036040516020016104b99190611912565b60405160208183030381529060405280519060200120816006016040516020016104e39190611912565b6040516020818303038152906040528051906020012014610539576040517f08c379a0000000000000000000000000000000000000000000000000000000008152600401610530906119c1565b60405180910390fd5b6040518060400160405280600e81526020017f70656e64696e675f726566756e6400000000000000000000000000000000000081525081600601908161057f9190611668565b505050565b606060006004600084815260200190815260200160002060060180546105a99061148b565b80601f01602080910402602001604051908101604052809291908181526020018280546105d59061148b565b80156106225780601f106105f757610100808354040283529160200191610622565b820191906000526020600020905b81548152906001019060200180831161060557829003601f168201915b5050505050905080915050919050565b60006004600083815260200190815260200160002090506040518060400160405280600481526020017f706169640000000000000000000000000000000000000000000000000000000081525081600601908161068f9190611668565b505050565b600080600080600060606000600460008981526020019081526020016000206000015490506000600460008a81526020019081526020016000206002015490506000600460008b815260200190815260200160002060030160009054906101000a900473ffffffffffffffffffffffffffffffffffffffff1690506000600460008c81526020019081526020016000206004015490506000600460008d81526020019081526020016000206005015490506000600460008e815260200190815260200160002060060180546107689061148b565b80601f01602080910402602001604051908101604052809291908181526020018280546107949061148b565b80156107e15780601f106107b6576101008083540402835291602001916107e1565b820191906000526020600020905b8154815290600101906020018083116107c457829003601f168201915b505050505090508585858585859b509b509b509b509b509b5050505050505091939550919395565b60006004600083815260200190815260200160002090506040518060400160405280600681526020017f61637469766500000000000000000000000000000000000000000000000000008152508160060190816108669190611668565b505050565b600047905090565b600060608060006004600086815260200190815260200160002060020154905060006004600087815260200190815260200160002060010180546108b69061148b565b80601f01602080910402602001604051908101604052809291908181526020018280546108e29061148b565b801561092f5780601f106109045761010080835404028352916020019161092f565b820191906000526020600020905b81548152906001019060200180831161091257829003601f168201915b5050505050905060006004600088815260200190815260200160002060060180546109599061148b565b80601f01602080910402602001604051908101604052809291908181526020018280546109859061148b565b80156109d25780601f106109a7576101008083540402835291602001916109d2565b820191906000526020600020905b8154815290600101906020018083116109b557829003601f168201915b505050505090508282829550955095505050509193909250565b60006004600083815260200190815260200160002090506040518060400160405280600681526020017f63616e63656c0000000000000000000000000000000000000000000000000000815250816006019081610a499190611668565b505050565b6000670de0b6b3a764000084610a649190611a10565b905047811115610aa9576040517f08c379a0000000000000000000000000000000000000000000000000000000008152600401610aa090611aea565b60405180910390fd5b60008060008054906101000a900473ffffffffffffffffffffffffffffffffffffffff1690508073ffffffffffffffffffffffffffffffffffffffff166328080873896040518263ffffffff1660e01b8152600401610b08919061100f565b600060405180830381865afa158015610b25573d6000803e3d6000fd5b505050506040513d6000823e3d601f19601f82011682018060405250810190610b4e9190611ba4565b90915090505080925050818814610b9a576040517f08c379a0000000000000000000000000000000000000000000000000000000008152600401610b9190611cb5565b60405180910390fd5b33600260006101000a81548173ffffffffffffffffffffffffffffffffffffffff021916908373ffffffffffffffffffffffffffffffffffffffff1602179055506040518060400160405280600681526020017f616374697665000000000000000000000000000000000000000000000000000081525060039081610c1f9190611668565b5060056040518060e001604052808a8152602001898152602001858152602001600260009054906101000a900473ffffffffffffffffffffffffffffffffffffffff1673ffffffffffffffffffffffffffffffffffffffff16815260200187815260200186815260200160038054610c969061148b565b80601f0160208091040260200160405190810160405280929190818152602001828054610cc29061148b565b8015610d0f5780601f10610ce457610100808354040283529160200191610d0f565b820191906000526020600020905b815481529060010190602001808311610cf257829003601f168201915b50505050508152509080600181540180825580915050600190039060005260206000209060070201600090919091909150600082015181600001556020820151816001019081610d5f9190611668565b506040820151816002015560608201518160030160006101000a81548173ffffffffffffffffffffffffffffffffffffffff021916908373ffffffffffffffffffffffffffffffffffffffff1602179055506080820151816004015560a0820151816005015560c0820151816006019081610dda9190611668565b5050506040518060e00160405280898152602001888152602001848152602001600260009054906101000a900473ffffffffffffffffffffffffffffffffffffffff1673ffffffffffffffffffffffffffffffffffffffff16815260200186815260200185815260200160038054610e519061148b565b80601f0160208091040260200160405190810160405280929190818152602001828054610e7d9061148b565b8015610eca5780601f10610e9f57610100808354040283529160200191610eca565b820191906000526020600020905b815481529060010190602001808311610ead57829003601f168201915b5050505050815250600460008a8152602001908152602001600020600082015181600001556020820151816001019081610f049190611668565b506040820151816002015560608201518160030160006101000a81548173ffffffffffffffffffffffffffffffffffffffff021916908373ffffffffffffffffffffffffffffffffffffffff1602179055506080820151816004015560a0820151816005015560c0820151816006019081610f7f9190611668565b50905050600160009054906101000a900473ffffffffffffffffffffffffffffffffffffffff1673ffffffffffffffffffffffffffffffffffffffff166108fc849081150290604051600060405180830381858888f19350505050158015610feb573d6000803e3d6000fd5b505050505050505050565b6000819050919050565b61100981610ff6565b82525050565b60006020820190506110246000830184611000565b92915050565b6000604051905090565b600080fd5b600080fd5b600073ffffffffffffffffffffffffffffffffffffffff82169050919050565b60006110698261103e565b9050919050565b6110798161105e565b811461108457600080fd5b50565b60008135905061109681611070565b92915050565b6000602082840312156110b2576110b1611034565b5b60006110c084828501611087565b91505092915050565b6110d281610ff6565b81146110dd57600080fd5b50565b6000813590506110ef816110c9565b92915050565b60006020828403121561110b5761110a611034565b5b6000611119848285016110e0565b91505092915050565b600081519050919050565b600082825260208201905092915050565b60005b8381101561115c578082015181840152602081019050611141565b60008484015250505050565b6000601f19601f8301169050919050565b600061118482611122565b61118e818561112d565b935061119e81856020860161113e565b6111a781611168565b840191505092915050565b600060208201905081810360008301526111cc8184611179565b905092915050565b6111dd8161105e565b82525050565b600060c0820190506111f86000830189611000565b6112056020830188611000565b61121260408301876111d4565b61121f6060830186611000565b61122c6080830185611000565b81810360a083015261123e8184611179565b9050979650505050505050565b60006060820190506112606000830186611000565b81810360208301526112728185611179565b905081810360408301526112868184611179565b9050949350505050565b600080fd5b600080fd5b7f4e487b7100000000000000000000000000000000000000000000000000000000600052604160045260246000fd5b6112d282611168565b810181811067ffffffffffffffff821117156112f1576112f061129a565b5b80604052505050565b600061130461102a565b905061131082826112c9565b919050565b600067ffffffffffffffff8211156113305761132f61129a565b5b61133982611168565b9050602081019050919050565b82818337600083830152505050565b600061136861136384611315565b6112fa565b90508281526020810184848401111561138457611383611295565b5b61138f848285611346565b509392505050565b600082601f8301126113ac576113ab611290565b5b81356113bc848260208601611355565b91505092915050565b600080600080600060a086880312156113e1576113e0611034565b5b60006113ef888289016110e0565b955050602086013567ffffffffffffffff8111156114105761140f611039565b5b61141c88828901611397565b945050604061142d888289016110e0565b935050606061143e888289016110e0565b925050608061144f888289016110e0565b9150509295509295909350565b7f4e487b7100000000000000000000000000000000000000000000000000000000600052602260045260246000fd5b600060028204905060018216806114a357607f821691505b6020821081036114b6576114b561145c565b5b50919050565b60008190508160005260206000209050919050565b60006020601f8301049050919050565b600082821b905092915050565b60006008830261151e7fffffffffffffffffffffffffffffffffffffffffffffffffffffffffffffffff826114e1565b61152886836114e1565b95508019841693508086168417925050509392505050565b6000819050919050565b600061156561156061155b84610ff6565b611540565b610ff6565b9050919050565b6000819050919050565b61157f8361154a565b61159361158b8261156c565b8484546114ee565b825550505050565b600090565b6115a861159b565b6115b3818484611576565b505050565b5b818110156115d7576115cc6000826115a0565b6001810190506115b9565b5050565b601f82111561161c576115ed816114bc565b6115f6846114d1565b81016020851015611605578190505b611619611611856114d1565b8301826115b8565b50505b505050565b600082821c905092915050565b600061163f60001984600802611621565b1980831691505092915050565b6000611658838361162e565b9150826002028217905092915050565b61167182611122565b67ffffffffffffffff81111561168a5761168961129a565b5b611694825461148b565b61169f8282856115db565b600060209050601f8311600181146116d257600084156116c0578287015190505b6116ca858261164c565b865550611732565b601f1984166116e0866114bc565b60005b82811015611708578489015182556001820191506020850194506020810190506116e3565b868310156117255784890151611721601f89168261162e565b8355505b6001600288020188555050505b505050505050565b7f5f5f5f5f5468652073747564656e7420494420656e746572656420697320656960008201527f74686572206e6f7420666f756e64206f72206e6f207363686f6c61727368697060208201527f5f5f5f5f00000000000000000000000000000000000000000000000000000000604082015250565b60006117bc60448361112d565b91506117c78261173a565b606082019050919050565b600060208201905081810360008301526117eb816117af565b9050919050565b7f5f5f5f5f4f6e6c79207363686f6c617273686970206f776e65722063616e206360008201527f616e63656c20746865207363686f6c6172736869705f5f5f5f00000000000000602082015250565b600061184e60398361112d565b9150611859826117f2565b604082019050919050565b6000602082019050818103600083015261187d81611841565b9050919050565b600081905092915050565b6000815461189c8161148b565b6118a68186611884565b945060018216600081146118c157600181146118d657611909565b60ff1983168652811515820286019350611909565b6118df856114bc565b60005b83811015611901578154818901526001820191506020810190506118e2565b838801955050505b50505092915050565b600061191e828461188f565b915081905092915050565b7f5f5f5f5f546865207363686f6c61727368697020697320616c7265616479206360008201527f616e63656c6c65642c206e6f20667572746865722063616e63656c6174696f6e60208201527f206e65656465645f5f5f5f000000000000000000000000000000000000000000604082015250565b60006119ab604b8361112d565b91506119b682611929565b606082019050919050565b600060208201905081810360008301526119da8161199e565b9050919050565b7f4e487b7100000000000000000000000000000000000000000000000000000000600052601160045260246000fd5b6000611a1b82610ff6565b9150611a2683610ff6565b9250828202611a3481610ff6565b91508282048414831517611a4b57611a4a6119e1565b5b5092915050565b7f5f5f5f5f546869732077616c6c657420646f6573206e6f74206861766520656e60008201527f6f7567682062616c616e636520746f206f6666657220746865207363686f6c6160208201527f72736869705f5f5f5f0000000000000000000000000000000000000000000000604082015250565b6000611ad460498361112d565b9150611adf82611a52565b606082019050919050565b60006020820190508181036000830152611b0381611ac7565b9050919050565b600081519050611b19816110c9565b92915050565b6000611b32611b2d84611315565b6112fa565b905082815260208101848484011115611b4e57611b4d611295565b5b611b5984828561113e565b509392505050565b600082601f830112611b7657611b75611290565b5b8151611b86848260208601611b1f565b91505092915050565b600081519050611b9e81611070565b92915050565b60008060008060808587031215611bbe57611bbd611034565b5b6000611bcc87828801611b0a565b945050602085015167ffffffffffffffff811115611bed57611bec611039565b5b611bf987828801611b61565b935050604085015167ffffffffffffffff811115611c1a57611c19611039565b5b611c2687828801611b61565b9250506060611c3787828801611b8f565b91505092959194509250565b7f5f5f5f5f5468652073747564656e7420494420656e7465726564206973206e6f60008201527f7420666f756e645f5f5f5f000000000000000000000000000000000000000000602082015250565b6000611c9f602b8361112d565b9150611caa82611c43565b604082019050919050565b60006020820190508181036000830152611cce81611c92565b905091905056fea26469706673582212205722282a5934bec0cb3525bd9bf3e972e1919c098a5ddc23f4dae6f53d398e0d64736f6c63430008110033",
  "linkReferences": {},
  "deployedLinkReferences": {}
}