{
  "_format": "hh-sol-artifact-1",
  "contractName": "ScholarDetails",
  "sourceName": "contracts/ScholarDetails.sol",
  "abi": [
    {
      "inputs": [
        {
          "internalType": "address",
          "name": "_StuContractAdd",
          "type": "address"
        }
      ],
      "stateMutability": "payable",
      "type": "constructor"
    },
    {
      "anonymous": false,
      "inputs": [
        {
          "indexed": false,
          "internalType": "uint256",
          "name": "amount",
          "type": "uint256"
        }
      ],
      "name": "ReceivedEth",
      "type": "event"
    },
    {
      "stateMutability": "payable",
      "type": "fallback"
    },
    {
      "inputs": [
        {
          "internalType": "uint256",
          "name": "_ID",
          "type": "uint256"
        },
        {
          "internalType": "string",
          "name": "_ScholarshipName",
          "type": "string"
        },
        {
          "internalType": "uint256",
          "name": "_Amount",
          "type": "uint256"
        },
        {
          "internalType": "uint256",
          "name": "_Attendance",
          "type": "uint256"
        },
        {
          "internalType": "uint256",
          "name": "_AvgMark",
          "type": "uint256"
        }
      ],
      "name": "addSchlRecords",
      "outputs": [],
      "stateMutability": "payable",
      "type": "function"
    },
    {
      "inputs": [
        {
          "internalType": "uint256",
          "name": "_ID",
          "type": "uint256"
        }
      ],
      "name": "cancelScholarship",
      "outputs": [],
      "stateMutability": "nonpayable",
      "type": "function"
    },
    {
      "inputs": [],
      "name": "contractStaffAdd",
      "outputs": [
        {
          "internalType": "address",
          "name": "",
          "type": "address"
        }
      ],
      "stateMutability": "view",
      "type": "function"
    },
    {
      "inputs": [
        {
          "internalType": "uint256",
          "name": "_ID",
          "type": "uint256"
        }
      ],
      "name": "getSchlDetails",
      "outputs": [
        {
          "internalType": "uint256",
          "name": "",
          "type": "uint256"
        },
        {
          "internalType": "uint256",
          "name": "",
          "type": "uint256"
        },
        {
          "internalType": "address payable",
          "name": "",
          "type": "address"
        },
        {
          "internalType": "uint256",
          "name": "",
          "type": "uint256"
        },
        {
          "internalType": "uint256",
          "name": "",
          "type": "uint256"
        },
        {
          "internalType": "string",
          "name": "",
          "type": "string"
        }
      ],
      "stateMutability": "view",
      "type": "function"
    },
    {
      "inputs": [
        {
          "internalType": "uint256",
          "name": "_ID",
          "type": "uint256"
        }
      ],
      "name": "getStatus",
      "outputs": [
        {
          "internalType": "string",
          "name": "",
          "type": "string"
        }
      ],
      "stateMutability": "view",
      "type": "function"
    },
    {
      "inputs": [
        {
          "internalType": "address payable",
          "name": "_StaffContractAdd",
          "type": "address"
        }
      ],
      "name": "storeContractAdd",
      "outputs": [],
      "stateMutability": "nonpayable",
      "type": "function"
    },
    {
      "inputs": [
        {
          "internalType": "uint256",
          "name": "_ID",
          "type": "uint256"
        }
      ],
      "name": "updStatActive",
      "outputs": [],
      "stateMutability": "nonpayable",
      "type": "function"
    },
    {
      "inputs": [
        {
          "internalType": "uint256",
          "name": "_ID",
          "type": "uint256"
        }
      ],
      "name": "updStatCancel",
      "outputs": [],
      "stateMutability": "nonpayable",
      "type": "function"
    },
    {
      "inputs": [
        {
          "internalType": "uint256",
          "name": "_ID",
          "type": "uint256"
        }
      ],
      "name": "updStatFailed",
      "outputs": [],
      "stateMutability": "nonpayable",
      "type": "function"
    },
    {
      "inputs": [
        {
          "internalType": "uint256",
          "name": "_ID",
          "type": "uint256"
        }
      ],
      "name": "updStatPaid",
      "outputs": [],
      "stateMutability": "nonpayable",
      "type": "function"
    },
    {
      "stateMutability": "payable",
      "type": "receive"
    }
  ],
  "bytecode": "0x608060405260405162001c7c38038062001c7c8339818101604052810190620000299190620000da565b806000806101000a81548173ffffffffffffffffffffffffffffffffffffffff021916908373ffffffffffffffffffffffffffffffffffffffff160217905550506200010c565b600080fd5b600073ffffffffffffffffffffffffffffffffffffffff82169050919050565b6000620000a28262000075565b9050919050565b620000b48162000095565b8114620000c057600080fd5b50565b600081519050620000d481620000a9565b92915050565b600060208284031215620000f357620000f262000070565b5b60006200010384828501620000c3565b91505092915050565b611b60806200011c6000396000f3fe6080604052600436106100955760003560e01c80638eece846116100595780638eece846146101ed578063b11b47821461022f578063e6ad3b9914610258578063ee632e9a14610281578063f1ff703f146102ac576100d3565b80632238663e1461010c57806327815ea01461013557806332b631261461015e5780635c622a0e14610187578063706cf851146101c4576100d3565b366100d3577feac3bc00eb8bc276e61d902ebf696db93b7ee1cf44f1b16d6da1111427825e9e346040516100c99190610e6d565b60405180910390a1005b7feac3bc00eb8bc276e61d902ebf696db93b7ee1cf44f1b16d6da1111427825e9e346040516101029190610e6d565b60405180910390a1005b34801561011857600080fd5b50610133600480360381019061012e9190610efa565b6102c8565b005b34801561014157600080fd5b5061015c60048036038101906101579190610f53565b61030c565b005b34801561016a57600080fd5b5061018560048036038101906101809190610f53565b61036e565b005b34801561019357600080fd5b506101ae60048036038101906101a99190610f53565b61053a565b6040516101bb9190611010565b60405180910390f35b3480156101d057600080fd5b506101eb60048036038101906101e69190610f53565b6105e8565b005b3480156101f957600080fd5b50610214600480360381019061020f9190610f53565b61064a565b60405161022696959493929190611041565b60405180910390f35b34801561023b57600080fd5b5061025660048036038101906102519190610f53565b6107bf565b005b34801561026457600080fd5b5061027f600480360381019061027a9190610f53565b610821565b005b34801561028d57600080fd5b50610296610883565b6040516102a391906110ca565b60405180910390f35b6102c660048036038101906102c1919061121a565b6108b2565b005b80600160006101000a81548173ffffffffffffffffffffffffffffffffffffffff021916908373ffffffffffffffffffffffffffffffffffffffff16021790555050565b60006004600083815260200190815260200160002090506040518060400160405280600681526020017f6661696c6564000000000000000000000000000000000000000000000000000081525081600601908161036991906114bd565b505050565b6000600460008381526020019081526020016000209050806000015482146103cb576040517f08c379a00000000000000000000000000000000000000000000000000000000081526004016103c290611627565b60405180910390fd5b3373ffffffffffffffffffffffffffffffffffffffff168160030160009054906101000a900473ffffffffffffffffffffffffffffffffffffffff1673ffffffffffffffffffffffffffffffffffffffff161461045d576040517f08c379a0000000000000000000000000000000000000000000000000000000008152600401610454906116b9565b60405180910390fd5b600360405160200161046f9190611767565b60405160208183030381529060405280519060200120816006016040516020016104999190611767565b60405160208183030381529060405280519060200120146104ef576040517f08c379a00000000000000000000000000000000000000000000000000000000081526004016104e690611816565b60405180910390fd5b6040518060400160405280600e81526020017f70656e64696e675f726566756e6400000000000000000000000000000000000081525081600601908161053591906114bd565b505050565b6060600060046000848152602001908152602001600020600601805461055f906112e0565b80601f016020809104026020016040519081016040528092919081815260200182805461058b906112e0565b80156105d85780601f106105ad576101008083540402835291602001916105d8565b820191906000526020600020905b8154815290600101906020018083116105bb57829003601f168201915b5050505050905080915050919050565b60006004600083815260200190815260200160002090506040518060400160405280600481526020017f706169640000000000000000000000000000000000000000000000000000000081525081600601908161064591906114bd565b505050565b600080600080600060606000600460008981526020019081526020016000206000015490506000600460008a81526020019081526020016000206002015490506000600460008b815260200190815260200160002060030160009054906101000a900473ffffffffffffffffffffffffffffffffffffffff1690506000600460008c81526020019081526020016000206004015490506000600460008d81526020019081526020016000206005015490506000600460008e8152602001908152602001600020600601805461071e906112e0565b80601f016020809104026020016040519081016040528092919081815260200182805461074a906112e0565b80156107975780601f1061076c57610100808354040283529160200191610797565b820191906000526020600020905b81548152906001019060200180831161077a57829003601f168201915b505050505090508585858585859b509b509b509b509b509b5050505050505091939550919395565b60006004600083815260200190815260200160002090506040518060400160405280600681526020017f616374697665000000000000000000000000000000000000000000000000000081525081600601908161081c91906114bd565b505050565b60006004600083815260200190815260200160002090506040518060400160405280600681526020017f63616e63656c000000000000000000000000000000000000000000000000000081525081600601908161087e91906114bd565b505050565b600080600160009054906101000a900473ffffffffffffffffffffffffffffffffffffffff1690508091505090565b600061f44b846108c29190611865565b905047811115610907576040517f08c379a00000000000000000000000000000000000000000000000000000000081526004016108fe9061193f565b60405180910390fd5b60008060008054906101000a900473ffffffffffffffffffffffffffffffffffffffff1690508073ffffffffffffffffffffffffffffffffffffffff166328080873896040518263ffffffff1660e01b81526004016109669190610e6d565b600060405180830381865afa158015610983573d6000803e3d6000fd5b505050506040513d6000823e3d601f19601f820116820180604052508101906109ac91906119f9565b909150905050809250508188146109f8576040517f08c379a00000000000000000000000000000000000000000000000000000000081526004016109ef90611b0a565b60405180910390fd5b33600260006101000a81548173ffffffffffffffffffffffffffffffffffffffff021916908373ffffffffffffffffffffffffffffffffffffffff1602179055506040518060400160405280600681526020017f616374697665000000000000000000000000000000000000000000000000000081525060039081610a7d91906114bd565b5060056040518060e001604052808a8152602001898152602001858152602001600260009054906101000a900473ffffffffffffffffffffffffffffffffffffffff1673ffffffffffffffffffffffffffffffffffffffff16815260200187815260200186815260200160038054610af4906112e0565b80601f0160208091040260200160405190810160405280929190818152602001828054610b20906112e0565b8015610b6d5780601f10610b4257610100808354040283529160200191610b6d565b820191906000526020600020905b815481529060010190602001808311610b5057829003601f168201915b50505050508152509080600181540180825580915050600190039060005260206000209060070201600090919091909150600082015181600001556020820151816001019081610bbd91906114bd565b506040820151816002015560608201518160030160006101000a81548173ffffffffffffffffffffffffffffffffffffffff021916908373ffffffffffffffffffffffffffffffffffffffff1602179055506080820151816004015560a0820151816005015560c0820151816006019081610c3891906114bd565b5050506040518060e00160405280898152602001888152602001848152602001600260009054906101000a900473ffffffffffffffffffffffffffffffffffffffff1673ffffffffffffffffffffffffffffffffffffffff16815260200186815260200185815260200160038054610caf906112e0565b80601f0160208091040260200160405190810160405280929190818152602001828054610cdb906112e0565b8015610d285780601f10610cfd57610100808354040283529160200191610d28565b820191906000526020600020905b815481529060010190602001808311610d0b57829003601f168201915b5050505050815250600460008a8152602001908152602001600020600082015181600001556020820151816001019081610d6291906114bd565b506040820151816002015560608201518160030160006101000a81548173ffffffffffffffffffffffffffffffffffffffff021916908373ffffffffffffffffffffffffffffffffffffffff1602179055506080820151816004015560a0820151816005015560c0820151816006019081610ddd91906114bd565b50905050600160009054906101000a900473ffffffffffffffffffffffffffffffffffffffff1673ffffffffffffffffffffffffffffffffffffffff166108fc849081150290604051600060405180830381858888f19350505050158015610e49573d6000803e3d6000fd5b505050505050505050565b6000819050919050565b610e6781610e54565b82525050565b6000602082019050610e826000830184610e5e565b92915050565b6000604051905090565b600080fd5b600080fd5b600073ffffffffffffffffffffffffffffffffffffffff82169050919050565b6000610ec782610e9c565b9050919050565b610ed781610ebc565b8114610ee257600080fd5b50565b600081359050610ef481610ece565b92915050565b600060208284031215610f1057610f0f610e92565b5b6000610f1e84828501610ee5565b91505092915050565b610f3081610e54565b8114610f3b57600080fd5b50565b600081359050610f4d81610f27565b92915050565b600060208284031215610f6957610f68610e92565b5b6000610f7784828501610f3e565b91505092915050565b600081519050919050565b600082825260208201905092915050565b60005b83811015610fba578082015181840152602081019050610f9f565b60008484015250505050565b6000601f19601f8301169050919050565b6000610fe282610f80565b610fec8185610f8b565b9350610ffc818560208601610f9c565b61100581610fc6565b840191505092915050565b6000602082019050818103600083015261102a8184610fd7565b905092915050565b61103b81610ebc565b82525050565b600060c0820190506110566000830189610e5e565b6110636020830188610e5e565b6110706040830187611032565b61107d6060830186610e5e565b61108a6080830185610e5e565b81810360a083015261109c8184610fd7565b9050979650505050505050565b60006110b482610e9c565b9050919050565b6110c4816110a9565b82525050565b60006020820190506110df60008301846110bb565b92915050565b600080fd5b600080fd5b7f4e487b7100000000000000000000000000000000000000000000000000000000600052604160045260246000fd5b61112782610fc6565b810181811067ffffffffffffffff82111715611146576111456110ef565b5b80604052505050565b6000611159610e88565b9050611165828261111e565b919050565b600067ffffffffffffffff821115611185576111846110ef565b5b61118e82610fc6565b9050602081019050919050565b82818337600083830152505050565b60006111bd6111b88461116a565b61114f565b9050828152602081018484840111156111d9576111d86110ea565b5b6111e484828561119b565b509392505050565b600082601f830112611201576112006110e5565b5b81356112118482602086016111aa565b91505092915050565b600080600080600060a0868803121561123657611235610e92565b5b600061124488828901610f3e565b955050602086013567ffffffffffffffff81111561126557611264610e97565b5b611271888289016111ec565b945050604061128288828901610f3e565b935050606061129388828901610f3e565b92505060806112a488828901610f3e565b9150509295509295909350565b7f4e487b7100000000000000000000000000000000000000000000000000000000600052602260045260246000fd5b600060028204905060018216806112f857607f821691505b60208210810361130b5761130a6112b1565b5b50919050565b60008190508160005260206000209050919050565b60006020601f8301049050919050565b600082821b905092915050565b6000600883026113737fffffffffffffffffffffffffffffffffffffffffffffffffffffffffffffffff82611336565b61137d8683611336565b95508019841693508086168417925050509392505050565b6000819050919050565b60006113ba6113b56113b084610e54565b611395565b610e54565b9050919050565b6000819050919050565b6113d48361139f565b6113e86113e0826113c1565b848454611343565b825550505050565b600090565b6113fd6113f0565b6114088184846113cb565b505050565b5b8181101561142c576114216000826113f5565b60018101905061140e565b5050565b601f8211156114715761144281611311565b61144b84611326565b8101602085101561145a578190505b61146e61146685611326565b83018261140d565b50505b505050565b600082821c905092915050565b600061149460001984600802611476565b1980831691505092915050565b60006114ad8383611483565b9150826002028217905092915050565b6114c682610f80565b67ffffffffffffffff8111156114df576114de6110ef565b5b6114e982546112e0565b6114f4828285611430565b600060209050601f8311600181146115275760008415611515578287015190505b61151f85826114a1565b865550611587565b601f19841661153586611311565b60005b8281101561155d57848901518255600182019150602085019450602081019050611538565b8683101561157a5784890151611576601f891682611483565b8355505b6001600288020188555050505b505050505050565b7f5f5f5f5f5468652073747564656e7420494420656e746572656420697320656960008201527f74686572206e6f7420666f756e64206f72206e6f207363686f6c61727368697060208201527f5f5f5f5f00000000000000000000000000000000000000000000000000000000604082015250565b6000611611604483610f8b565b915061161c8261158f565b606082019050919050565b6000602082019050818103600083015261164081611604565b9050919050565b7f5f5f5f5f4f6e6c79207363686f6c617273686970206f776e65722063616e206360008201527f616e63656c20746865207363686f6c6172736869705f5f5f5f00000000000000602082015250565b60006116a3603983610f8b565b91506116ae82611647565b604082019050919050565b600060208201905081810360008301526116d281611696565b9050919050565b600081905092915050565b600081546116f1816112e0565b6116fb81866116d9565b94506001821660008114611716576001811461172b5761175e565b60ff198316865281151582028601935061175e565b61173485611311565b60005b8381101561175657815481890152600182019150602081019050611737565b838801955050505b50505092915050565b600061177382846116e4565b915081905092915050565b7f5f5f5f5f546865207363686f6c61727368697020697320616c7265616479206360008201527f616e63656c6c65642c206e6f20667572746865722063616e63656c6174696f6e60208201527f206e65656465645f5f5f5f000000000000000000000000000000000000000000604082015250565b6000611800604b83610f8b565b915061180b8261177e565b606082019050919050565b6000602082019050818103600083015261182f816117f3565b9050919050565b7f4e487b7100000000000000000000000000000000000000000000000000000000600052601160045260246000fd5b600061187082610e54565b915061187b83610e54565b925082820261188981610e54565b915082820484148315176118a05761189f611836565b5b5092915050565b7f5f5f5f5f546869732077616c6c657420646f6573206e6f74206861766520656e60008201527f6f7567682062616c616e636520746f206f6666657220746865207363686f6c6160208201527f72736869705f5f5f5f0000000000000000000000000000000000000000000000604082015250565b6000611929604983610f8b565b9150611934826118a7565b606082019050919050565b600060208201905081810360008301526119588161191c565b9050919050565b60008151905061196e81610f27565b92915050565b60006119876119828461116a565b61114f565b9050828152602081018484840111156119a3576119a26110ea565b5b6119ae848285610f9c565b509392505050565b600082601f8301126119cb576119ca6110e5565b5b81516119db848260208601611974565b91505092915050565b6000815190506119f381610ece565b92915050565b60008060008060808587031215611a1357611a12610e92565b5b6000611a218782880161195f565b945050602085015167ffffffffffffffff811115611a4257611a41610e97565b5b611a4e878288016119b6565b935050604085015167ffffffffffffffff811115611a6f57611a6e610e97565b5b611a7b878288016119b6565b9250506060611a8c878288016119e4565b91505092959194509250565b7f5f5f5f5f5468652073747564656e7420494420656e7465726564206973206e6f60008201527f7420666f756e645f5f5f5f000000000000000000000000000000000000000000602082015250565b6000611af4602b83610f8b565b9150611aff82611a98565b604082019050919050565b60006020820190508181036000830152611b2381611ae7565b905091905056fea26469706673582212205b3841f554e927d865b2331fe47598c76499170380309d694cc479e78fb63ebe64736f6c63430008110033",
  "linkReferences": {},
  "deployedLinkReferences": {}
}