{
  "_format": "hh-sol-artifact-1",
  "contractName": "Staff",
  "sourceName": "contracts/Staff.sol",
  "abi": [
    {
      "inputs": [
        {
          "internalType": "address",
          "name": "_StuContractAdd",
          "type": "address"
        },
        {
          "internalType": "address",
          "name": "_SchlContractAdd",
          "type": "address"
        }
      ],
      "stateMutability": "payable",
      "type": "constructor"
    },
    {
      "anonymous": false,
      "inputs": [
        {
          "indexed": false,
          "internalType": "uint256",
          "name": "amount",
          "type": "uint256"
        }
      ],
      "name": "ReceivedEth",
      "type": "event"
    },
    {
      "stateMutability": "payable",
      "type": "fallback"
    },
    {
      "inputs": [
        {
          "internalType": "uint256",
          "name": "_ID",
          "type": "uint256"
        }
      ],
      "name": "processActivation",
      "outputs": [],
      "stateMutability": "nonpayable",
      "type": "function"
    },
    {
      "inputs": [
        {
          "internalType": "uint256",
          "name": "_ID",
          "type": "uint256"
        }
      ],
      "name": "processRefund",
      "outputs": [],
      "stateMutability": "payable",
      "type": "function"
    },
    {
      "inputs": [
        {
          "internalType": "uint256",
          "name": "_ID",
          "type": "uint256"
        },
        {
          "internalType": "uint256",
          "name": "_Attendance",
          "type": "uint256"
        },
        {
          "internalType": "uint256",
          "name": "_AvgMark",
          "type": "uint256"
        }
      ],
      "name": "resultNpay",
      "outputs": [],
      "stateMutability": "payable",
      "type": "function"
    },
    {
      "inputs": [
        {
          "internalType": "uint256",
          "name": "_ID",
          "type": "uint256"
        }
      ],
      "name": "viewStatus",
      "outputs": [
        {
          "internalType": "string",
          "name": "",
          "type": "string"
        }
      ],
      "stateMutability": "view",
      "type": "function"
    },
    {
      "stateMutability": "payable",
      "type": "receive"
    }
  ],
  "bytecode": "0x608060405260405162001b2b38038062001b2b83398181016040528101906200002991906200011c565b816000806101000a81548173ffffffffffffffffffffffffffffffffffffffff021916908373ffffffffffffffffffffffffffffffffffffffff16021790555080600160006101000a81548173ffffffffffffffffffffffffffffffffffffffff021916908373ffffffffffffffffffffffffffffffffffffffff160217905550505062000163565b600080fd5b600073ffffffffffffffffffffffffffffffffffffffff82169050919050565b6000620000e482620000b7565b9050919050565b620000f681620000d7565b81146200010257600080fd5b50565b6000815190506200011681620000eb565b92915050565b60008060408385031215620001365762000135620000b2565b5b6000620001468582860162000105565b9250506020620001598582860162000105565b9150509250929050565b6119b880620001736000396000f3fe6080604052600436106100435760003560e01c80635949541f146100ba578063ac4640e1146100d6578063bb9e24cf14610113578063dac87ca41461013c57610081565b36610081577feac3bc00eb8bc276e61d902ebf696db93b7ee1cf44f1b16d6da1111427825e9e346040516100779190610c47565b60405180910390a1005b7feac3bc00eb8bc276e61d902ebf696db93b7ee1cf44f1b16d6da1111427825e9e346040516100b09190610c47565b60405180910390a1005b6100d460048036038101906100cf9190610ca2565b610158565b005b3480156100e257600080fd5b506100fd60048036038101906100f89190610cf5565b610656565b60405161010a9190610db2565b60405180910390f35b34801561011f57600080fd5b5061013a60048036038101906101359190610cf5565b61070c565b005b61015660048036038101906101519190610cf5565b610925565b005b6008604051806060016040528085815260200184815260200183815250908060018154018082558091505060019003906000526020600020906003020160009091909190915060008201518160000155602082015181600101556040820151816002015550506040518060600160405280848152602001838152602001828152506007600085815260200190815260200160002060008201518160000155602082015181600101556040820151816002015590505060008060008060009054906101000a900473ffffffffffffffffffffffffffffffffffffffff1690508073ffffffffffffffffffffffffffffffffffffffff166328080873876040518263ffffffff1660e01b815260040161026f9190610c47565b600060405180830381865afa15801561028c573d6000803e3d6000fd5b505050506040513d6000823e3d601f19601f820116820180604052508101906102b59190610f6d565b909192509091509050600360008291906101000a81548173ffffffffffffffffffffffffffffffffffffffff021916908373ffffffffffffffffffffffffffffffffffffffff160217905550506000600160009054906101000a900473ffffffffffffffffffffffffffffffffffffffff1690508073ffffffffffffffffffffffffffffffffffffffff16638eece846886040518263ffffffff1660e01b81526004016103629190610c47565b600060405180830381865afa15801561037f573d6000803e3d6000fd5b505050506040513d6000823e3d601f19601f820116820180604052508101906103a8919061100c565b909192506002600060056000600660008691905090816103c891906112c1565b50859b50869c508791905055869190505550505050506002548714610422576040517f08c379a00000000000000000000000000000000000000000000000000000000081526004016104199061142b565b60405180910390fd5b604051602001610431906114a2565b604051602081830303815290604052805190602001206006604051602001610459919061153a565b60405160208183030381529060405280519060200120146104af576040517f08c379a00000000000000000000000000000000000000000000000000000000081526004016104a6906115c3565b60405180910390fd5b858411806104bc57508483115b15610531578073ffffffffffffffffffffffffffffffffffffffff166327815ea0886040518263ffffffff1660e01b81526004016104fa9190610c47565b600060405180830381600087803b15801561051457600080fd5b505af1158015610528573d6000803e3d6000fd5b5050505061064d565b476005541115610576576040517f08c379a000000000000000000000000000000000000000000000000000000000815260040161056d9061167b565b60405180910390fd5b600360009054906101000a900473ffffffffffffffffffffffffffffffffffffffff1673ffffffffffffffffffffffffffffffffffffffff166108fc6005549081150290604051600060405180830381858888f193505050501580156105e0573d6000803e3d6000fd5b508073ffffffffffffffffffffffffffffffffffffffff1663706cf851886040518263ffffffff1660e01b815260040161061a9190610c47565b600060405180830381600087803b15801561063457600080fd5b505af1158015610648573d6000803e3d6000fd5b505050505b50505050505050565b60606000600160009054906101000a900473ffffffffffffffffffffffffffffffffffffffff16905060008173ffffffffffffffffffffffffffffffffffffffff16635c622a0e856040518263ffffffff1660e01b81526004016106ba9190610c47565b600060405180830381865afa1580156106d7573d6000803e3d6000fd5b505050506040513d6000823e3d601f19601f82011682018060405250810190610700919061169b565b90508092505050919050565b6000600160009054906101000a900473ffffffffffffffffffffffffffffffffffffffff1690508073ffffffffffffffffffffffffffffffffffffffff16638eece846836040518263ffffffff1660e01b815260040161076c9190610c47565b600060405180830381865afa158015610789573d6000803e3d6000fd5b505050506040513d6000823e3d601f19601f820116820180604052508101906107b2919061100c565b9091925090915090506002600060056000600660008691905090816107d791906112c1565b50859190505584919050555050506002548214610829576040517f08c379a00000000000000000000000000000000000000000000000000000000081526004016108209061142b565b60405180910390fd5b60405160200161083890611730565b604051602081830303815290604052805190602001206006604051602001610860919061153a565b60405160208183030381529060405280519060200120146108b6576040517f08c379a00000000000000000000000000000000000000000000000000000000081526004016108ad906117dd565b60405180910390fd5b8073ffffffffffffffffffffffffffffffffffffffff1663b11b4782836040518263ffffffff1660e01b81526004016108ef9190610c47565b600060405180830381600087803b15801561090957600080fd5b505af115801561091d573d6000803e3d6000fd5b505050505050565b6000600160009054906101000a900473ffffffffffffffffffffffffffffffffffffffff1690508073ffffffffffffffffffffffffffffffffffffffff16638eece846836040518263ffffffff1660e01b81526004016109859190610c47565b600060405180830381865afa1580156109a2573d6000803e3d6000fd5b505050506040513d6000823e3d601f19601f820116820180604052508101906109cb919061100c565b9091509050600260006005600060046000600660008891905090816109f091906112c1565b508791906101000a81548173ffffffffffffffffffffffffffffffffffffffff021916908373ffffffffffffffffffffffffffffffffffffffff16021790555086919050558591905055505050506002548214610a82576040517f08c379a0000000000000000000000000000000000000000000000000000000008152600401610a799061142b565b60405180910390fd5b604051602001610a9190611849565b604051602081830303815290604052805190602001206006604051602001610ab9919061153a565b6040516020818303038152906040528051906020012014610b0f576040517f08c379a0000000000000000000000000000000000000000000000000000000008152600401610b06906118aa565b60405180910390fd5b476005541115610b54576040517f08c379a0000000000000000000000000000000000000000000000000000000008152600401610b4b90611962565b60405180910390fd5b600460009054906101000a900473ffffffffffffffffffffffffffffffffffffffff1673ffffffffffffffffffffffffffffffffffffffff166108fc6005549081150290604051600060405180830381858888f19350505050158015610bbe573d6000803e3d6000fd5b508073ffffffffffffffffffffffffffffffffffffffff1663e6ad3b99836040518263ffffffff1660e01b8152600401610bf89190610c47565b600060405180830381600087803b158015610c1257600080fd5b505af1158015610c26573d6000803e3d6000fd5b505050505050565b6000819050919050565b610c4181610c2e565b82525050565b6000602082019050610c5c6000830184610c38565b92915050565b6000604051905090565b600080fd5b600080fd5b610c7f81610c2e565b8114610c8a57600080fd5b50565b600081359050610c9c81610c76565b92915050565b600080600060608486031215610cbb57610cba610c6c565b5b6000610cc986828701610c8d565b9350506020610cda86828701610c8d565b9250506040610ceb86828701610c8d565b9150509250925092565b600060208284031215610d0b57610d0a610c6c565b5b6000610d1984828501610c8d565b91505092915050565b600081519050919050565b600082825260208201905092915050565b60005b83811015610d5c578082015181840152602081019050610d41565b60008484015250505050565b6000601f19601f8301169050919050565b6000610d8482610d22565b610d8e8185610d2d565b9350610d9e818560208601610d3e565b610da781610d68565b840191505092915050565b60006020820190508181036000830152610dcc8184610d79565b905092915050565b600081519050610de381610c76565b92915050565b600080fd5b600080fd5b7f4e487b7100000000000000000000000000000000000000000000000000000000600052604160045260246000fd5b610e2b82610d68565b810181811067ffffffffffffffff82111715610e4a57610e49610df3565b5b80604052505050565b6000610e5d610c62565b9050610e698282610e22565b919050565b600067ffffffffffffffff821115610e8957610e88610df3565b5b610e9282610d68565b9050602081019050919050565b6000610eb2610ead84610e6e565b610e53565b905082815260208101848484011115610ece57610ecd610dee565b5b610ed9848285610d3e565b509392505050565b600082601f830112610ef657610ef5610de9565b5b8151610f06848260208601610e9f565b91505092915050565b600073ffffffffffffffffffffffffffffffffffffffff82169050919050565b6000610f3a82610f0f565b9050919050565b610f4a81610f2f565b8114610f5557600080fd5b50565b600081519050610f6781610f41565b92915050565b60008060008060808587031215610f8757610f86610c6c565b5b6000610f9587828801610dd4565b945050602085015167ffffffffffffffff811115610fb657610fb5610c71565b5b610fc287828801610ee1565b935050604085015167ffffffffffffffff811115610fe357610fe2610c71565b5b610fef87828801610ee1565b925050606061100087828801610f58565b91505092959194509250565b60008060008060008060c0878903121561102957611028610c6c565b5b600061103789828a01610dd4565b965050602061104889828a01610dd4565b955050604061105989828a01610f58565b945050606061106a89828a01610dd4565b935050608061107b89828a01610dd4565b92505060a087015167ffffffffffffffff81111561109c5761109b610c71565b5b6110a889828a01610ee1565b9150509295509295509295565b7f4e487b7100000000000000000000000000000000000000000000000000000000600052602260045260246000fd5b600060028204905060018216806110fc57607f821691505b60208210810361110f5761110e6110b5565b5b50919050565b60008190508160005260206000209050919050565b60006020601f8301049050919050565b600082821b905092915050565b6000600883026111777fffffffffffffffffffffffffffffffffffffffffffffffffffffffffffffffff8261113a565b611181868361113a565b95508019841693508086168417925050509392505050565b6000819050919050565b60006111be6111b96111b484610c2e565b611199565b610c2e565b9050919050565b6000819050919050565b6111d8836111a3565b6111ec6111e4826111c5565b848454611147565b825550505050565b600090565b6112016111f4565b61120c8184846111cf565b505050565b5b81811015611230576112256000826111f9565b600181019050611212565b5050565b601f8211156112755761124681611115565b61124f8461112a565b8101602085101561125e578190505b61127261126a8561112a565b830182611211565b50505b505050565b600082821c905092915050565b60006112986000198460080261127a565b1980831691505092915050565b60006112b18383611287565b9150826002028217905092915050565b6112ca82610d22565b67ffffffffffffffff8111156112e3576112e2610df3565b5b6112ed82546110e4565b6112f8828285611234565b600060209050601f83116001811461132b5760008415611319578287015190505b61132385826112a5565b86555061138b565b601f19841661133986611115565b60005b828110156113615784890151825560018201915060208501945060208101905061133c565b8683101561137e578489015161137a601f891682611287565b8355505b6001600288020188555050505b505050505050565b7f5f5f5f5f5468652073747564656e7420494420656e746572656420697320656960008201527f74686572206e6f7420666f756e64206f72206e6f207363686f6c61727368697060208201527f5f5f5f5f00000000000000000000000000000000000000000000000000000000604082015250565b6000611415604483610d2d565b915061142082611393565b606082019050919050565b6000602082019050818103600083015261144481611408565b9050919050565b600081905092915050565b7f6163746976650000000000000000000000000000000000000000000000000000600082015250565b600061148c60068361144b565b915061149782611456565b600682019050919050565b60006114ad8261147f565b9150819050919050565b600081546114c4816110e4565b6114ce818661144b565b945060018216600081146114e957600181146114fe57611531565b60ff1983168652811515820286019350611531565b61150785611115565b60005b838110156115295781548189015260018201915060208101905061150a565b838801955050505b50505092915050565b600061154682846114b7565b915081905092915050565b7f5f5f5f5f546865207363686f6c617273686970206973206e6f7420616374697660008201527f655f5f5f5f000000000000000000000000000000000000000000000000000000602082015250565b60006115ad602583610d2d565b91506115b882611551565b604082019050919050565b600060208201905081810360008301526115dc816115a0565b9050919050565b7f5f5f5f5f546869732077616c6c657420646f6573206e6f74206861766520656e60008201527f6f7567682062616c616e636520746f2070617920746f2073747564656e745f5f60208201527f5f5f000000000000000000000000000000000000000000000000000000000000604082015250565b6000611665604283610d2d565b9150611670826115e3565b606082019050919050565b6000602082019050818103600083015261169481611658565b9050919050565b6000602082840312156116b1576116b0610c6c565b5b600082015167ffffffffffffffff8111156116cf576116ce610c71565b5b6116db84828501610ee1565b91505092915050565b7f6661696c65640000000000000000000000000000000000000000000000000000600082015250565b600061171a60068361144b565b9150611725826116e4565b600682019050919050565b600061173b8261170d565b9150819050919050565b7f5f5f5f5f546865207363686f6c617273686970206973206e6f7420696e20666160008201527f696c6564207374617475732c206e6f2061637469766174696f6e20726571756960208201527f7265645f5f5f5f00000000000000000000000000000000000000000000000000604082015250565b60006117c7604783610d2d565b91506117d282611745565b606082019050919050565b600060208201905081810360008301526117f6816117ba565b9050919050565b7f70656e64696e675f726566756e64000000000000000000000000000000000000600082015250565b6000611833600e8361144b565b915061183e826117fd565b600e82019050919050565b600061185482611826565b9150819050919050565b7f5f5f5f5f4e6f20726566756e642070656e64696e675f5f5f5f00000000000000600082015250565b6000611894601983610d2d565b915061189f8261185e565b602082019050919050565b600060208201905081810360008301526118c381611887565b9050919050565b7f5f5f5f5f546869732077616c6c657420646f6573206e6f74206861766520656e60008201527f6f7567682062616c616e636520746f20706572666f726d20726566756e645f5f60208201527f5f5f000000000000000000000000000000000000000000000000000000000000604082015250565b600061194c604283610d2d565b9150611957826118ca565b606082019050919050565b6000602082019050818103600083015261197b8161193f565b905091905056fea26469706673582212201b0e40e15ad057e15fbd73255684eb21ed01b20fa11671b369f8eb83d75ef1a764736f6c63430008110033",
  "linkReferences": {},
  "deployedLinkReferences": {}
}