{
  "contractName": "StuDetails",
  "abi": [
    {
      "inputs": [
        {
          "internalType": "uint256",
          "name": "_ID",
          "type": "uint256"
        },
        {
          "internalType": "string",
          "name": "_FirstName",
          "type": "string"
        },
        {
          "internalType": "string",
          "name": "_LastName",
          "type": "string"
        }
      ],
      "name": "addStuRecords",
      "outputs": [],
      "stateMutability": "nonpayable",
      "type": "function"
    },
    {
      "inputs": [
        {
          "internalType": "uint256",
          "name": "_ID",
          "type": "uint256"
        }
      ],
      "name": "getStuDetails",
      "outputs": [
        {
          "internalType": "uint256",
          "name": "",
          "type": "uint256"
        },
        {
          "internalType": "string",
          "name": "",
          "type": "string"
        },
        {
          "internalType": "string",
          "name": "",
          "type": "string"
        },
        {
          "internalType": "address payable",
          "name": "",
          "type": "address"
        }
      ],
      "stateMutability": "view",
      "type": "function",
      "constant": true
    }
  ],
  "bytecode": "0x608060405234801561001057600080fd5b50610a25806100206000396000f3fe608060405234801561001057600080fd5b50600436106100365760003560e01c8063280808731461003b578063638e704f1461006e575b600080fd5b610055600480360381019061005091906105d4565b61008a565b60405161006594939291906106ea565b60405180910390f35b61008860048036038101906100839190610872565b610243565b005b60006060806000806001600087815260200190815260200160002060000154905060006001600088815260200190815260200160002060010180546100ce9061092c565b80601f01602080910402602001604051908101604052809291908181526020018280546100fa9061092c565b80156101475780601f1061011c57610100808354040283529160200191610147565b820191906000526020600020905b81548152906001019060200180831161012a57829003601f168201915b5050505050905060006001600089815260200190815260200160002060020180546101719061092c565b80601f016020809104026020016040519081016040528092919081815260200182805461019d9061092c565b80156101ea5780601f106101bf576101008083540402835291602001916101ea565b820191906000526020600020905b8154815290600101906020018083116101cd57829003601f168201915b505050505090506000600160008a815260200190815260200160002060030160009054906101000a900473ffffffffffffffffffffffffffffffffffffffff169050838383839750975097509750505050509193509193565b8260016000858152602001908152602001600020600001540361029b576040517f08c379a0000000000000000000000000000000000000000000000000000000008152600401610292906109cf565b60405180910390fd5b336000806101000a81548173ffffffffffffffffffffffffffffffffffffffff021916908373ffffffffffffffffffffffffffffffffffffffff1602179055506002604051806080016040528085815260200184815260200183815260200160008054906101000a900473ffffffffffffffffffffffffffffffffffffffff1673ffffffffffffffffffffffffffffffffffffffff1681525090806001815401808255809150506001900390600052602060002090600402016000909190919091506000820151816000015560208201518160010190805190602001906103839291906104e7565b5060408201518160020190805190602001906103a09291906104e7565b5060608201518160030160006101000a81548173ffffffffffffffffffffffffffffffffffffffff021916908373ffffffffffffffffffffffffffffffffffffffff1602179055505050604051806080016040528084815260200183815260200182815260200160008054906101000a900473ffffffffffffffffffffffffffffffffffffffff1673ffffffffffffffffffffffffffffffffffffffff168152506001600085815260200190815260200160002060008201518160000155602082015181600101908051906020019061047a9291906104e7565b5060408201518160020190805190602001906104979291906104e7565b5060608201518160030160006101000a81548173ffffffffffffffffffffffffffffffffffffffff021916908373ffffffffffffffffffffffffffffffffffffffff160217905550905050505050565b8280546104f39061092c565b90600052602060002090601f016020900481019282610515576000855561055c565b82601f1061052e57805160ff191683800117855561055c565b8280016001018555821561055c579182015b8281111561055b578251825591602001919060010190610540565b5b509050610569919061056d565b5090565b5b8082111561058657600081600090555060010161056e565b5090565b6000604051905090565b600080fd5b600080fd5b6000819050919050565b6105b18161059e565b81146105bc57600080fd5b50565b6000813590506105ce816105a8565b92915050565b6000602082840312156105ea576105e9610594565b5b60006105f8848285016105bf565b91505092915050565b61060a8161059e565b82525050565b600081519050919050565b600082825260208201905092915050565b60005b8381101561064a57808201518184015260208101905061062f565b83811115610659576000848401525b50505050565b6000601f19601f8301169050919050565b600061067b82610610565b610685818561061b565b935061069581856020860161062c565b61069e8161065f565b840191505092915050565b600073ffffffffffffffffffffffffffffffffffffffff82169050919050565b60006106d4826106a9565b9050919050565b6106e4816106c9565b82525050565b60006080820190506106ff6000830187610601565b81810360208301526107118186610670565b905081810360408301526107258185610670565b905061073460608301846106db565b95945050505050565b600080fd5b600080fd5b7f4e487b7100000000000000000000000000000000000000000000000000000000600052604160045260246000fd5b61077f8261065f565b810181811067ffffffffffffffff8211171561079e5761079d610747565b5b80604052505050565b60006107b161058a565b90506107bd8282610776565b919050565b600067ffffffffffffffff8211156107dd576107dc610747565b5b6107e68261065f565b9050602081019050919050565b82818337600083830152505050565b6000610815610810846107c2565b6107a7565b90508281526020810184848401111561083157610830610742565b5b61083c8482856107f3565b509392505050565b600082601f8301126108595761085861073d565b5b8135610869848260208601610802565b91505092915050565b60008060006060848603121561088b5761088a610594565b5b6000610899868287016105bf565b935050602084013567ffffffffffffffff8111156108ba576108b9610599565b5b6108c686828701610844565b925050604084013567ffffffffffffffff8111156108e7576108e6610599565b5b6108f386828701610844565b9150509250925092565b7f4e487b7100000000000000000000000000000000000000000000000000000000600052602260045260246000fd5b6000600282049050600182168061094457607f821691505b602082108103610957576109566108fd565b5b50919050565b7f5f5f5f5f53747564656e7420494420616c72656164792072656769737465726560008201527f6420616e642063616e6e6f7420626520616c74657265645f5f5f5f0000000000602082015250565b60006109b9603b8361061b565b91506109c48261095d565b604082019050919050565b600060208201905081810360008301526109e8816109ac565b905091905056fea2646970667358221220a8994b1e6505235c36afc64f3c50da54a52d8bd3797c18108f6a386298763b1364736f6c634300080d0033",
  "immutableReferences": {},
  "source": "// SPDX-License-Identifier: MIT\r\n\r\npragma solidity >=0.5.0 <0.9.0;\r\n\r\ncontract StuDetails {\r\n    // Create a structure for\r\n    // student details\r\n    struct Student {\r\n        uint256 ID;\r\n        string FirstName;\r\n        string LastName;\r\n        address payable Address;\r\n    }\r\n\r\n    //Define variables\r\n    address stuAdd;\r\n    mapping(uint256 => Student) internal stuRecords;\r\n    Student[] internal student;\r\n\r\n    // Create a function to add\r\n    // the new records\r\n    function addStuRecords(\r\n        uint256 _ID,\r\n        string memory _FirstName,\r\n        string memory _LastName\r\n    ) public {\r\n        //error message if student try to enter using the same ID again\r\n        require(\r\n            stuRecords[_ID].ID != _ID,\r\n            \"____Student ID already registered and cannot be altered____\"\r\n        );\r\n        // Get the student address\r\n        stuAdd = msg.sender;\r\n\r\n        //Add to array\r\n        student.push(\r\n            Student({\r\n                ID: _ID,\r\n                FirstName: _FirstName,\r\n                LastName: _LastName,\r\n                Address: payable(stuAdd)\r\n            })\r\n        );\r\n\r\n        // Fetch the student details\r\n        // with the student ID\r\n        stuRecords[_ID] = Student(_ID, _FirstName, _LastName, payable(stuAdd));\r\n    }\r\n\r\n    //function to view the student array\r\n    function getStuDetails(\r\n        uint256 _ID\r\n    )\r\n        public\r\n        view\r\n        returns (uint256, string memory, string memory, address payable)\r\n    {\r\n        uint256 ID = stuRecords[_ID].ID;\r\n        string memory FirstName = stuRecords[_ID].FirstName;\r\n        string memory LastName = stuRecords[_ID].LastName;\r\n        address payable Address = stuRecords[_ID].Address;\r\n        return (ID, FirstName, LastName, Address);\r\n    }\r\n}\r\n",
  "sourcePath": "C:\\Users\\91966\\Desktop\\Mini Project\\Project-Solution-Challange\\contracts\\StuDetails.sol",
  "compiler": {
    "name": "solc",
    "version": "0.8.13+commit.abaa5c0e.Emscripten.clang"
  },
  "schemaVersion": "3.4.16",
  "updatedAt": "2024-01-26T16:25:09.266Z",
  "networkType": "ethereum",
  "devdoc": {
    "kind": "dev",
    "methods": {},
    "version": 1
  },
  "userdoc": {
    "kind": "user",
    "methods": {},
    "version": 1
  }
}