{
  "_format": "hh-sol-artifact-1",
  "contractName": "StuDetails",
  "sourceName": "contracts/StuDetails.sol",
  "abi": [
    {
      "inputs": [
        {
          "internalType": "uint256",
          "name": "_ID",
          "type": "uint256"
        },
        {
          "internalType": "string",
          "name": "_FirstName",
          "type": "string"
        },
        {
          "internalType": "string",
          "name": "_LastName",
          "type": "string"
        }
      ],
      "name": "addStuRecords",
      "outputs": [],
      "stateMutability": "nonpayable",
      "type": "function"
    },
    {
      "inputs": [
        {
          "internalType": "uint256",
          "name": "_ID",
          "type": "uint256"
        }
      ],
      "name": "getStuDetails",
      "outputs": [
        {
          "internalType": "uint256",
          "name": "",
          "type": "uint256"
        },
        {
          "internalType": "string",
          "name": "",
          "type": "string"
        },
        {
          "internalType": "string",
          "name": "",
          "type": "string"
        },
        {
          "internalType": "address payable",
          "name": "",
          "type": "address"
        }
      ],
      "stateMutability": "view",
      "type": "function"
    }
  ],
  "bytecode": "0x608060405234801561001057600080fd5b50610d31806100206000396000f3fe608060405234801561001057600080fd5b50600436106100365760003560e01c8063280808731461003b578063638e704f1461006e575b600080fd5b610055600480360381019061005091906105d9565b61008a565b60405161006594939291906106e6565b60405180910390f35b6100886004803603810190610083919061086e565b610243565b005b60006060806000806001600087815260200190815260200160002060000154905060006001600088815260200190815260200160002060010180546100ce90610928565b80601f01602080910402602001604051908101604052809291908181526020018280546100fa90610928565b80156101475780601f1061011c57610100808354040283529160200191610147565b820191906000526020600020905b81548152906001019060200180831161012a57829003601f168201915b50505050509050600060016000898152602001908152602001600020600201805461017190610928565b80601f016020809104026020016040519081016040528092919081815260200182805461019d90610928565b80156101ea5780601f106101bf576101008083540402835291602001916101ea565b820191906000526020600020905b8154815290600101906020018083116101cd57829003601f168201915b505050505090506000600160008a815260200190815260200160002060030160009054906101000a900473ffffffffffffffffffffffffffffffffffffffff169050838383839750975097509750505050509193509193565b8260016000858152602001908152602001600020600001540361029b576040517f08c379a0000000000000000000000000000000000000000000000000000000008152600401610292906109cb565b60405180910390fd5b336000806101000a81548173ffffffffffffffffffffffffffffffffffffffff021916908373ffffffffffffffffffffffffffffffffffffffff16021790555060008054906101000a900473ffffffffffffffffffffffffffffffffffffffff1673ffffffffffffffffffffffffffffffffffffffff166001600085815260200190815260200160002060030160009054906101000a900473ffffffffffffffffffffffffffffffffffffffff1673ffffffffffffffffffffffffffffffffffffffff160361039f576040517f08c379a000000000000000000000000000000000000000000000000000000000815260040161039690610a5d565b60405180910390fd5b6002604051806080016040528085815260200184815260200183815260200160008054906101000a900473ffffffffffffffffffffffffffffffffffffffff1673ffffffffffffffffffffffffffffffffffffffff1681525090806001815401808255809150506001900390600052602060002090600402016000909190919091506000820151816000015560208201518160010190816104409190610c29565b5060408201518160020190816104569190610c29565b5060608201518160030160006101000a81548173ffffffffffffffffffffffffffffffffffffffff021916908373ffffffffffffffffffffffffffffffffffffffff1602179055505050604051806080016040528084815260200183815260200182815260200160008054906101000a900473ffffffffffffffffffffffffffffffffffffffff1673ffffffffffffffffffffffffffffffffffffffff16815250600160008581526020019081526020016000206000820151816000015560208201518160010190816105299190610c29565b50604082015181600201908161053f9190610c29565b5060608201518160030160006101000a81548173ffffffffffffffffffffffffffffffffffffffff021916908373ffffffffffffffffffffffffffffffffffffffff160217905550905050505050565b6000604051905090565b600080fd5b600080fd5b6000819050919050565b6105b6816105a3565b81146105c157600080fd5b50565b6000813590506105d3816105ad565b92915050565b6000602082840312156105ef576105ee610599565b5b60006105fd848285016105c4565b91505092915050565b61060f816105a3565b82525050565b600081519050919050565b600082825260208201905092915050565b60005b8381101561064f578082015181840152602081019050610634565b60008484015250505050565b6000601f19601f8301169050919050565b600061067782610615565b6106818185610620565b9350610691818560208601610631565b61069a8161065b565b840191505092915050565b600073ffffffffffffffffffffffffffffffffffffffff82169050919050565b60006106d0826106a5565b9050919050565b6106e0816106c5565b82525050565b60006080820190506106fb6000830187610606565b818103602083015261070d818661066c565b90508181036040830152610721818561066c565b905061073060608301846106d7565b95945050505050565b600080fd5b600080fd5b7f4e487b7100000000000000000000000000000000000000000000000000000000600052604160045260246000fd5b61077b8261065b565b810181811067ffffffffffffffff8211171561079a57610799610743565b5b80604052505050565b60006107ad61058f565b90506107b98282610772565b919050565b600067ffffffffffffffff8211156107d9576107d8610743565b5b6107e28261065b565b9050602081019050919050565b82818337600083830152505050565b600061081161080c846107be565b6107a3565b90508281526020810184848401111561082d5761082c61073e565b5b6108388482856107ef565b509392505050565b600082601f83011261085557610854610739565b5b81356108658482602086016107fe565b91505092915050565b60008060006060848603121561088757610886610599565b5b6000610895868287016105c4565b935050602084013567ffffffffffffffff8111156108b6576108b561059e565b5b6108c286828701610840565b925050604084013567ffffffffffffffff8111156108e3576108e261059e565b5b6108ef86828701610840565b9150509250925092565b7f4e487b7100000000000000000000000000000000000000000000000000000000600052602260045260246000fd5b6000600282049050600182168061094057607f821691505b602082108103610953576109526108f9565b5b50919050565b7f5f5f5f5f53747564656e7420494420616c72656164792072656769737465726560008201527f6420616e642063616e6e6f7420626520616c74657265645f5f5f5f0000000000602082015250565b60006109b5603b83610620565b91506109c082610959565b604082019050919050565b600060208201905081810360008301526109e4816109a8565b9050919050565b7f4164647265737320616c7265616479207573656420746f2073746f726520646160008201527f7461000000000000000000000000000000000000000000000000000000000000602082015250565b6000610a47602283610620565b9150610a52826109eb565b604082019050919050565b60006020820190508181036000830152610a7681610a3a565b9050919050565b60008190508160005260206000209050919050565b60006020601f8301049050919050565b600082821b905092915050565b600060088302610adf7fffffffffffffffffffffffffffffffffffffffffffffffffffffffffffffffff82610aa2565b610ae98683610aa2565b95508019841693508086168417925050509392505050565b6000819050919050565b6000610b26610b21610b1c846105a3565b610b01565b6105a3565b9050919050565b6000819050919050565b610b4083610b0b565b610b54610b4c82610b2d565b848454610aaf565b825550505050565b600090565b610b69610b5c565b610b74818484610b37565b505050565b5b81811015610b9857610b8d600082610b61565b600181019050610b7a565b5050565b601f821115610bdd57610bae81610a7d565b610bb784610a92565b81016020851015610bc6578190505b610bda610bd285610a92565b830182610b79565b50505b505050565b600082821c905092915050565b6000610c0060001984600802610be2565b1980831691505092915050565b6000610c198383610bef565b9150826002028217905092915050565b610c3282610615565b67ffffffffffffffff811115610c4b57610c4a610743565b5b610c558254610928565b610c60828285610b9c565b600060209050601f831160018114610c935760008415610c81578287015190505b610c8b8582610c0d565b865550610cf3565b601f198416610ca186610a7d565b60005b82811015610cc957848901518255600182019150602085019450602081019050610ca4565b86831015610ce65784890151610ce2601f891682610bef565b8355505b6001600288020188555050505b50505050505056fea2646970667358221220c598b241da4d36d984af05ff2301d3f3191b11fe3c91c4517843d0c07280081164736f6c63430008110033",
  "linkReferences": {},
  "deployedLinkReferences": {}
}